{
  "contractName": "TweetInvestment",
  "abi": [
    {
      "inputs": [],
      "name": "tweetCount",
      "outputs": [
        {
          "internalType": "uint256",
          "name": "",
          "type": "uint256"
        }
      ],
      "stateMutability": "view",
      "type": "function"
    },
    {
      "inputs": [
        {
          "internalType": "uint256",
          "name": "",
          "type": "uint256"
        }
      ],
      "name": "tweets",
      "outputs": [
        {
          "internalType": "address",
          "name": "owner",
          "type": "address"
        },
        {
          "internalType": "uint256",
          "name": "investmentAmount",
          "type": "uint256"
        },
        {
          "internalType": "uint256",
          "name": "kpiTarget",
          "type": "uint256"
        },
        {
          "internalType": "uint256",
          "name": "currentKPI",
          "type": "uint256"
        },
        {
          "internalType": "bool",
          "name": "completed",
          "type": "bool"
        }
      ],
      "stateMutability": "view",
      "type": "function"
    },
    {
      "inputs": [
        {
          "internalType": "uint256",
          "name": "_tweetId",
          "type": "uint256"
        }
      ],
      "name": "investInTweet",
      "outputs": [],
      "stateMutability": "payable",
      "type": "function"
    },
    {
      "inputs": [
        {
          "internalType": "uint256",
          "name": "_tweetId",
          "type": "uint256"
        },
        {
          "internalType": "uint256",
          "name": "_target",
          "type": "uint256"
        }
      ],
      "name": "setKPITarget",
      "outputs": [],
      "stateMutability": "nonpayable",
      "type": "function"
    },
    {
      "inputs": [
        {
          "internalType": "uint256",
          "name": "_tweetId",
          "type": "uint256"
        },
        {
          "internalType": "uint256",
          "name": "_kpi",
          "type": "uint256"
        }
      ],
      "name": "updateKPI",
      "outputs": [],
      "stateMutability": "nonpayable",
      "type": "function"
    }
  ],
  "bytecode": "0x608060405234801561000f575f80fd5b5061072b8061001d5f395ff3fe608060405260043610610049575f3560e01c806338cb0c441461004d5780634a7782b3146100755780635b41e3f61461009f578063e8d857b0146100c7578063ff31b71314610107575b5f80fd5b348015610058575f80fd5b50610073600480360381019061006e919061042e565b610123565b005b348015610080575f80fd5b506100896101d4565b604051610096919061047b565b60405180910390f35b3480156100aa575f80fd5b506100c560048036038101906100c0919061042e565b6101da565b005b3480156100d2575f80fd5b506100ed60048036038101906100e89190610494565b610291565b6040516100fe959493929190610518565b60405180910390f35b610121600480360381019061011c9190610494565b6102ed565b005b5f805f8481526020019081526020015f209050805f015f9054906101000a900473ffffffffffffffffffffffffffffffffffffffff1673ffffffffffffffffffffffffffffffffffffffff163373ffffffffffffffffffffffffffffffffffffffff16146101c6576040517f08c379a00000000000000000000000000000000000000000000000000000000081526004016101bd906105e9565b60405180910390fd5b818160020181905550505050565b60015481565b5f805f8481526020019081526020015f209050818160030181905550806002015481600301541061028c576001816004015f6101000a81548160ff021916908315150217905550805f015f9054906101000a900473ffffffffffffffffffffffffffffffffffffffff1673ffffffffffffffffffffffffffffffffffffffff166108fc826001015490811502906040515f60405180830381858888f1935050505015801561028a573d5f803e3d5ffd5b505b505050565b5f602052805f5260405f205f91509050805f015f9054906101000a900473ffffffffffffffffffffffffffffffffffffffff1690806001015490806002015490806003015490806004015f9054906101000a900460ff16905085565b5f341161032f576040517f08c379a000000000000000000000000000000000000000000000000000000000815260040161032690610677565b60405180910390fd5b5f805f8381526020019081526020015f2090505f73ffffffffffffffffffffffffffffffffffffffff16815f015f9054906101000a900473ffffffffffffffffffffffffffffffffffffffff1673ffffffffffffffffffffffffffffffffffffffff16036103d95733815f015f6101000a81548173ffffffffffffffffffffffffffffffffffffffff021916908373ffffffffffffffffffffffffffffffffffffffff1602179055505b34816001015f8282546103ec91906106c2565b925050819055505050565b5f80fd5b5f819050919050565b61040d816103fb565b8114610417575f80fd5b50565b5f8135905061042881610404565b92915050565b5f8060408385031215610444576104436103f7565b5b5f6104518582860161041a565b92505060206104628582860161041a565b9150509250929050565b610475816103fb565b82525050565b5f60208201905061048e5f83018461046c565b92915050565b5f602082840312156104a9576104a86103f7565b5b5f6104b68482850161041a565b91505092915050565b5f73ffffffffffffffffffffffffffffffffffffffff82169050919050565b5f6104e8826104bf565b9050919050565b6104f8816104de565b82525050565b5f8115159050919050565b610512816104fe565b82525050565b5f60a08201905061052b5f8301886104ef565b610538602083018761046c565b610545604083018661046c565b610552606083018561046c565b61055f6080830184610509565b9695505050505050565b5f82825260208201905092915050565b7f4f6e6c7920746865207477656574206f776e65722063616e20736574207468655f8201527f204b504920746172676574000000000000000000000000000000000000000000602082015250565b5f6105d3602b83610569565b91506105de82610579565b604082019050919050565b5f6020820190508181035f830152610600816105c7565b9050919050565b7f496e766573746d656e74206d7573742062652067726561746572207468616e205f8201527f7a65726f00000000000000000000000000000000000000000000000000000000602082015250565b5f610661602483610569565b915061066c82610607565b604082019050919050565b5f6020820190508181035f83015261068e81610655565b9050919050565b7f4e487b71000000000000000000000000000000000000000000000000000000005f52601160045260245ffd5b5f6106cc826103fb565b91506106d7836103fb565b92508282019050808211156106ef576106ee610695565b5b9291505056fea26469706673582212201a225311914aeeefd3e28c4f0b7cc4acd3a00948ce0919b2716a9bc8d9b39dc064736f6c63430008150033",
  "immutableReferences": {},
  "source": "// SPDX-License-Identifier: MIT\r\npragma solidity ^0.8.0;\r\n\r\ncontract TweetInvestment {\r\n    struct Tweet {\r\n        address owner;\r\n        uint256 investmentAmount;\r\n        uint256 kpiTarget;\r\n        uint256 currentKPI;\r\n        bool completed;\r\n    }\r\n\r\n    mapping(uint256 => Tweet) public tweets;\r\n    uint256 public tweetCount;\r\n\r\n    function investInTweet(uint256 _tweetId) public payable {\r\n        require(msg.value > 0, \"Investment must be greater than zero\");\r\n        Tweet storage tweet = tweets[_tweetId];\r\n        if (tweet.owner == address(0)) {\r\n            // Initialize the tweet with the sender as the owner\r\n            tweet.owner = msg.sender;\r\n        }\r\n        tweet.investmentAmount += msg.value;\r\n    }\r\n\r\n\r\n    function setKPITarget(uint256 _tweetId, uint256 _target) public {\r\n        Tweet storage tweet = tweets[_tweetId];\r\n        require(msg.sender == tweet.owner, \"Only the tweet owner can set the KPI target\");\r\n        tweet.kpiTarget = _target;\r\n    }\r\n\r\n    function updateKPI(uint256 _tweetId, uint256 _kpi) public {\r\n        Tweet storage tweet = tweets[_tweetId];\r\n        tweet.currentKPI = _kpi;\r\n        \r\n        if (tweet.currentKPI >= tweet.kpiTarget) {\r\n            tweet.completed = true;\r\n            payable(tweet.owner).transfer(tweet.investmentAmount);\r\n        }\r\n    }\r\n}\r\n",
  "sourcePath": "C:\\Users\\impex\\Desktop\\tweet trader\\contracts\\TweetInvestment.sol",
  "compiler": {
    "name": "solc",
    "version": "0.8.21+commit.d9974bed.Emscripten.clang"
  },
  "schemaVersion": "3.4.16",
  "updatedAt": "2024-09-23T13:07:38.101Z",
  "devdoc": {
    "kind": "dev",
    "methods": {},
    "version": 1
  },
  "userdoc": {
    "kind": "user",
    "methods": {},
    "version": 1
  }
}